:100000000C9446000C9465000C9465000C946500FB
:100010000C9465000C9465000C9465000C946500CC
:100020000C9465000C9465000C9465000C946500BC
:100030000C9465000C9465000C9465000C946500AC
:100040000C9465000C9465000C9465000C9465009C
:100050000C9465000C9465000C9465000C9465008C
:100060000C9465000C9465000C9465000C9465007C
:100070000C9465000C9465000C9467000C9465006A
:100080000C9465000C9465000C94650011241FBE4F
:10009000CFEFD0E1DEBFCDBF11E0A0E0B1E0ECE2F8
:1000A000F5E000E00BBF02C007900D92A237B10748
:1000B000D9F711E0A2E7B1E001C01D92A337B10763
:1000C000E1F70E941B010C9494020C9400001F9213
:1000D0000F920FB60F920BB60F9211240F931F932E
:1000E0002F933F934F935F936F937F938F939F9340
:1000F000AF93BF93EF93FF930AE910E0F80180817B
:100100008F7780830E94BE010E94F8010E947201D5
:1001100080E060E00E94A101F80180818068808316
:10012000FF91EF91BF91AF919F918F917F916F91CF
:100130005F914F913F912F911F910F910F900BBEA7
:100140000F900FBE0F901F90189580E091E00E94D5
:100150008E0181E060E00E94A10181E191E00E94B6
:100160008E0182E060E00E94A1018CE191E00E949A
:100170008E0183E060E00E94A10185E291E00E948F
:100180008E010EC00E946E02982F809372018150E2
:10019000823030F0943021F0983011F010927201DA
:1001A00080917201882371F30E94BE018DE291E07B
:1001B0000E948E0181E060E00E94A10180917201A5
:1001C0008230E9F0833018F4813029F505C084309D
:1001D000C9F0883001F51BC08CE391E00E948E01CC
:1001E00082E060E00E94A10189E491E00E948E011A
:1001F00083E060E00E94A10182E591E005C081E614
:1002000091E002C088E691E00E948E0108958DE69B
:1002100091E00E948E0108950E94FF010E944E010C
:1002200080E895E20E94D80181B3836081BB82B3EC
:100230008C7F82BB08950E940C010E94A5007894D7
:10024000FFCF28E833E1C9010197F1F7E2E6F0E0DA
:10025000808188608083C9010197F1F78081877F61
:10026000808308950F931F93082FE2E6F0E08081CA
:100270008D7F808380818B7F8083802F807F83B977
:100280000E94210110E084E0000F111F8A95E1F720
:1002900003B90E9421011F910F91089528E833E1CD
:1002A000C9010197F1F7E1E6F0E080818E6080837B
:1002B00082B1806F82B9C9010197F1F783E30E948F
:1002C000320182E30E94320188E20E9432018CE016
:1002D0000E94320181E00E94320188EA91E6019792
:1002E000F1F708950F931F93082FE2E6F0E0808165
:1002F0008260808380818B7F8083802F807F83B921
:100300000E94210110E094E0000F111F9A95E1F77F
:1003100003B90E9421011F910F9108951F93CF935C
:10032000DF93EC0110E003C00E9472011F5FFE0129
:10033000E10FF11D80818823B9F7DF91CF911F91E3
:1003400008958430D0F46031C0F4813051F08130B0
:1003500028F0823049F0833081F40BC0862F80581A
:1003600005C0862F805402C0862F80570E9432011C
:100370000895862F80530E943201089581E00E94E3
:10038000320180E060E00E94A101089582B18F7087
:1003900082B9809162008D7F8093620080916200BB
:1003A0008460809362000E9421010E942101FBCFA2
:1003B0009C0140E050E060E271EA87E090E00E943A
:1003C000720221503040309398002093990088E9C0
:1003D00080939A008EE080939D000895982F882343
:1003E00031F080919B0085FFFCCF90939C00089595
:1003F00080919B0087FFFCCF80919C00089580EF47
:1004000081BB81B387BB8FEF8ABB88EF84BB80EE53
:1004100080936400089582BB8295807F88BB089595
:1004200028E030E040E050E060E27EE44FC0822F00
:10043000887785BBCB010197F1F783B390E0809576
:1004400090958770907082309105B1F0843091055D
:1004500029F10197A9F5332399F5283011F481E3A7
:100460000895203111F484E30895203211F487E3D4
:100470000895203439F530C0332311F5283011F4B4
:1004800082E30895203111F485E30895203211F4B8
:1004900088E308952034B1F480E30895332381F490
:1004A000283011F483E30895203111F486E3089590
:1004B000203211F489E30895203421F483E2089571
:1004C00030E001C031E0220F4F5F5F4F44305105F3
:1004D00009F0ADCF80E008958AE20895809163002D
:1004E0008F710895A1E21A2EAA1BBB1BFD010DC03E
:1004F000AA1FBB1FEE1FFF1FA217B307E407F507D4
:1005000020F0A21BB30BE40BF50B661F771F881FAF
:10051000991F1A9469F760957095809590959B0145
:0C052000AC01BD01CF010895F894FFCF9D
:10052C004B303A205075736820427574746F6E733B
:10053C00004B313A204D6174726978004B323A208D
:10054C004C454473004B333A204C43440053656C88
:10055C00656374656420726F6C653A0050757368DE
:10056C0020427574746F6E73005072657373204BF8
:10057C003000746F207374617274205253343835A8
:10058C00004D6174726978004C454473004C4344CF
:02059C0000005D
:00000001FF
