:100000000C9446000C9465000C9465000C946500FB
:100010000C9465000C9465000C9465000C946500CC
:100020000C9465000C9465000C9465000C946500BC
:100030000C9465000C9465000C9465000C946500AC
:100040000C9465000C9465000C9465000C9465009C
:100050000C9465000C9465000C9465000C9465008C
:100060000C9465000C9465000C9465000C9465007C
:100070000C9465000C9465000C9467000C9465006A
:100080000C9465000C9465000C94650011241FBE4F
:10009000CFEFD0E1DEBFCDBF11E0A0E0B1E0EEE4F4
:1000A000F5E000E00BBF02C007900D92A237B10748
:1000B000D9F711E0A2E7B1E001C01D92A337B10763
:1000C000E1F70E9409010C94A5020C9400001F9214
:1000D0000F920FB60F920BB60F9211242F933F93EE
:1000E0004F935F936F937F938F939F93AF93BF9340
:1000F000EF93FF93F8940E94AE010E94EE010E94DC
:10010000620180E060E00E9491017894FF91EF919C
:10011000BF91AF919F918F917F916F915F914F911F
:100120003F912F910F900BBE0F900FBE0F901F901D
:10013000189580E091E00E947E0181E060E00E94DD
:10014000910181E191E00E947E0182E060E00E94E5
:1001500091018CE191E00E947E0183E060E00E94C9
:10016000910185E291E00E947E010EC00E9464022E
:10017000982F809372018150823030F0943021F0BA
:10018000983011F01092720180917201882371F3FE
:100190000E94AE018DE291E00E947E0181E060E06C
:1001A0000E949101809172018230E9F0833018F44D
:1001B000813029F505C08430C9F0883001F51BC0B5
:1001C0008CE391E00E947E0182E060E00E94910158
:1001D00089E491E00E947E0183E060E00E94910149
:1001E00082E591E005C081E691E002C088E691E0F9
:1001F0000E947E0108958DE691E00E947E0108959F
:100200000E94F5010E943E0180E895E20E94CE0125
:1002100008950E94000178940E9406020E94E40161
:10022000FBCF26EA3EE0C9010197F1F7E2E6F0E0F4
:10023000808188608083C9010197F1F78081877F81
:10024000808308950F931F93082FE2E6F0E08081EA
:100250008D7F808380818B7F8083802F807F83B997
:100260000E94110110E084E0000F111F8A95E1F750
:1002700003B90E9411011F910F91089528E833E1FD
:10028000C9010197F1F7E1E6F0E080818E6080839B
:1002900082B1806F82B9C9010197F1F783E30E94AF
:1002A000220182E30E94220188E20E9422018CE066
:1002B0000E94220181E00E94220188EA91E60197D2
:1002C000F1F708950F931F93082FE2E6F0E0808185
:1002D0008260808380818B7F8083802F807F83B941
:1002E0000E94110110E094E0000F111F9A95E1F7B0
:1002F00003B90E9411011F910F9108951F93CF938D
:10030000DF93EC0110E003C00E9462011F5FFE0159
:10031000E10FF11D80818823B9F7DF91CF911F9103
:1003200008958430D0F46031C0F4813051F08130D0
:1003300028F0823049F0833081F40BC0862F80583A
:1003400005C0862F805402C0862F80570E9422014C
:100350000895862F80530E942201089581E00E9413
:10036000220180E060E00E949101089582B18F70C7
:1003700082B9809162008D7F8093620080916200DB
:1003800084608093620002C00E9411010E941101EA
:100390000F99FACF82B1806F82B908959C0140E035
:1003A00050E060E472E48FE090E00E946802215027
:1003B0003040309398002093990088E980939A0008
:1003C0008EE080939D000895982F882331F08091CE
:1003D0009B0085FFFCCF90939C00089580919B002B
:1003E00087FFFCCF80919C00089580EF81BB81B393
:1003F00087BB8FEF8ABB88EF84BB80EE809364005D
:10040000089582BB8295807F88BB089528E030E004
:1004100040E050E060E47CE94FC0822F887785BBE4
:10042000CB010197F1F783B390E0809590958770A9
:10043000907082309105B1F08430910529F10197D7
:10044000A9F5332399F5283011F481E3089520317B
:1004500011F484E30895203211F487E308952034E1
:1004600039F530C0332311F5283011F482E30895B3
:10047000203111F485E30895203211F488E30895C2
:100480002034B1F480E30895332381F4283011F44B
:1004900083E30895203111F486E30895203211F4A6
:1004A00089E30895203421F483E2089530E001C007
:1004B00031E0220F4F5F5F4F4430510509F0ADCF5F
:1004C00080E008958AE20895809163008F71089515
:1004D00097FB092E05260ED057FD04D014D00AD064
:1004E000001C38F450954095309521953F4F4F4F63
:1004F0005F4F0895F6F790958095709561957F4FC1
:100500008F4F9F4F0895A1E21A2EAA1BBB1BFD011E
:100510000DC0AA1FBB1FEE1FFF1FA217B307E407E2
:10052000F50720F0A21BB30BE40BF50B661F771F3A
:10053000881F991F1A9469F760957095809590951A
:0E0540009B01AC01BD01CF010895F894FFCFDF
:10054E004B303A205075736820427574746F6E7319
:10055E00004B313A204D6174726978004B323A206B
:10056E004C454473004B333A204C43440053656C66
:10057E00656374656420726F6C653A0050757368BC
:10058E0020427574746F6E73005072657373204BD6
:10059E003000746F20737461727420525334383586
:1005AE00004D6174726978004C454473004C4344AD
:0205BE0000003B
:00000001FF
