:100000000C9446000C9465000C9465000C946500FB
:100010000C9465000C9465000C9465000C946500CC
:100020000C9465000C9465000C9465000C946500BC
:100030000C9465000C9465000C9465000C946500AC
:100040000C9465000C9465000C9465000C9465009C
:100050000C9465000C9465000C9465000C9465008C
:100060000C9465000C9465000C9465000C9465007C
:100070000C9465000C9465000C9465000C9465006C
:100080000C9465000C9465000C94650011241FBE4F
:10009000CFEFD0E1DEBFCDBF11E0A0E0B1E0E2E202
:1000A000F4E000E00BBF02C007900D92AE32B10742
:1000B000D9F711E0AEE2B1E001C01D92AF32B10755
:1000C000E1F70E948D000C940F020C94000080E078
:1000D00091E00E94000181E060E00E94130181E153
:1000E00091E00E94000182E060E00E9413018CE137
:1000F00091E00E94000183E060E00E94130185E22C
:1001000091E00E94000108950E945F010E94C300D7
:1001100080E895E20E94380108950E948400809151
:100120002E01882329F40E94670080932E01FFCFBF
:10013000FFCF2AEF30E0C9010197F1F7E2E6F0E0E6
:10014000808188608083C9010197F1F78081877F72
:10015000808308950F931F93082FE2E6F0E08081DB
:100160008D7F8083802F807F83B90E94990010E06B
:1001700084E0000F111F8A95E1F703B90E949900EE
:100180001F910F91089528E833E1C9010197F1F714
:10019000E1E6F0E080818E60808382B1806F82B979
:1001A000C9010197F1F783E30E94AA0082E30E944C
:1001B000AA0088E20E94AA008CE00E94AA0081E0C6
:1001C0000E94AA0088EA91E60197F1F708950F933B
:1001D0001F93082FE2E6F0E0808182608083802F09
:1001E000807F83B90E94990010E094E0000F111FF6
:1001F0009A95E1F703B90E9499001F910F91089514
:100200001F93CF93DF93EC0110E003C00E94E7003F
:100210001F5FFE01E10FF11D80818823B9F7DF9197
:10022000CF911F9108958430D0F46031C0F48130B3
:1002300051F0813028F0823049F0833081F40BC0D6
:10024000862F805805C0862F805402C0862F805785
:100250000E94AA000895862F80530E94AA00089544
:1002600081E00E94AA0080E060E00E9413010895EE
:100270009C0140E050E060E472E48FE090E00E9476
:10028000D20121503040309398002093990088E1AA
:1002900080939A008EE080939D000895982F882384
:1002A00031F080919B0085FFFCCF90939C000895D6
:1002B00080919B0087FFFCCF80919C00089580EF88
:1002C00081BB81B387BB8FEF8ABB88EF84BB80EE95
:1002D00080936400089582BB8295807F88BB0895D7
:1002E00028E030E040E050E060E47CE94FC0822F3D
:1002F000887785BBCB010197F1F783B390E08095B8
:1003000090958770907082309105B1F0843091059E
:1003100029F10197A9F5332399F5283011F481E3E8
:100320000895203111F484E30895203211F487E315
:100330000895203439F530C0332311F5283011F4F5
:1003400082E30895203111F485E30895203211F4F9
:1003500088E308952034B1F480E30895332381F4D1
:10036000283011F483E30895203111F486E30895D1
:10037000203211F489E30895203421F483E20895B2
:1003800030E001C031E0220F4F5F5F4F4430510534
:1003900009F0ADCF80E008958AE20895809163006E
:1003A0008F71089597FB092E05260ED057FD04D0B6
:1003B00014D00AD0001C38F4509540953095219502
:1003C0003F4F4F4F5F4F0895F6F79095809570958A
:1003D00061957F4F8F4F9F4F0895A1E21A2EAA1B60
:1003E000BB1BFD010DC0AA1FBB1FEE1FFF1FA217E5
:1003F000B307E407F50720F0A21BB30BE40BF50BE2
:10040000661F771F881F991F1A9469F7609570956A
:10041000809590959B01AC01BD01CF010895F894A2
:02042000FFCF0C
:100422004B303A205075736820427574746F6E7346
:10043200004B313A204D6174726978004B323A2098
:0E0442004C454473004B333A204C43440000B9
:00000001FF
