:100000000C9446000C945D000C945D000C945D0013
:100010000C945D000C945D000C945D000C945D00EC
:100020000C945D000C945D000C945D000C945D00DC
:100030000C945D000C945D000C945D000C945D00CC
:100040000C945D000C945D000C945D000C945D00BC
:100050000C945D000C945D000C945D000C945D00AC
:100060000C945D000C945D000C945D000C945D009C
:100070000C945D000C945D000C945D000C945D008C
:100080000C945D000C945D000C945D0011241FBE67
:10009000CFEFD0E1DEBFCDBF11E0A0E0B1E0EEEAEE
:1000A000F1E000E00BBF02C007900D92A030B10755
:1000B000D9F70E94CF000C94D5000C9400002AEFD1
:1000C00030E0C9010197F1F7E2E6F0E08081886055
:1000D0008083C9010197F1F78081877F808308952C
:1000E0000F931F93082FE2E6F0E080818D7F8083DD
:1000F000802F807F83B90E945F0010E084E0000FB2
:10010000111F8A95E1F703B90E945F001F910F91BB
:10011000089588E893E10197F1F78EE080936100FC
:1001200080EF82B980E30E94700082EE94E0019734
:10013000F1F780E30E94700084EF91E00197F1F7FE
:1001400080E30E94700080E29EE429E130E0F90142
:100150003197F1F70197D9F78EE00E94700082E0A5
:100160000E94700086E00E94700081E00E94700092
:100170008CE00E94700008951F93182FE2E6F0E0D3
:10018000808182608083812F807F83B90E945F009D
:100190001295107F13B90E945F001F9108950E946D
:0E01A000890081E60E94BC00FFCFF894FFCFDB
:00000001FF
