:100000000C9446000C945D000C945D000C945D0013
:100010000C945D000C945D000C945D000C945D00EC
:100020000C945D000C945D000C945D000C945D00DC
:100030000C945D000C945D000C945D000C945D00CC
:100040000C945D000C945D000C945D000C945D00BC
:100050000C945D000C945D000C945D000C945D00AC
:100060000C945D000C945D000C945D000C945D009C
:100070000C945D000C945D000C945D000C945D008C
:100080000C945D000C945D000C945D0011241FBE67
:10009000CFEFD0E1DEBFCDBF11E0A0E0B1E0ECE0FA
:1000A000F2E000E00BBF02C007900D92A030B10754
:1000B000D9F70E945F000C9404010C9400000E9488
:1000C0008F008EEE0E94B300FFCF2AEF30E0C9010F
:1000D0000197F1F7E2E6F0E0808188608083C90152
:1000E0000197F1F78081877F808308950F931F9395
:1000F000082FE2E6F0E080818D7F8083802F807F73
:1001000083B90E94650010E084E0000F111F8A95FA
:10011000E1F703B90E9465001F910F91089528E847
:1001200033E1C9010197F1F7E1E6F0E080818E60EB
:10013000808382B1806F82B9C9010197F1F783E3AF
:100140000E94760082E30E94760088E20E94760098
:100150008CE00E94760081E00E94760088EA91E6B9
:100160000197F1F708950F931F93082FE2E6F0E04F
:10017000808182608083802F807F83B90E946500A8
:1001800010E094E0000F111F9A95E1F703B90E9467
:1001900065001F910F9108951F93CF93DF93EC019A
:1001A00010E003C00E94B3001F5FFE01E10FF11DCC
:1001B00080818823B9F7DF91CF911F910895843012
:1001C000D0F46031C0F4813051F0813028F08230B9
:1001D00049F0833081F40BC0862F805805C0862FEC
:1001E000805402C0862F80570E9476000895862F83
:1001F00080530E947600089581E00E94760080E09E
:0C02000060E00E94DF000895F894FFCF3A
:00000001FF
