:100000000C9446000C945D000C945D000C945D0013
:100010000C945D000C945D000C945D000C945D00EC
:100020000C945D000C945D000C945D000C945D00DC
:100030000C945D000C945D000C945D000C945D00CC
:100040000C945D000C945D000C945D000C945D00BC
:100050000C945D000C945D000C945D000C945D00AC
:100060000C945D000C945D000C945D000C945D009C
:100070000C945D000C945D000C945D000C945D008C
:100080000C945D000C945D000C945D0011241FBE67
:10009000CFEFD0E1DEBFCDBF11E0A0E0B1E0ECE0FA
:1000A000F2E000E00BBF02C007900D92A030B10754
:1000B000D9F70E94C9000C9404010C94000080EF51
:1000C00081BB81B387BB8FEF8ABB88EF84BB80EE97
:1000D00080936400089528E030E040E050E060E460
:1000E0007CE94FC0822F887785BBCB010197F1F760
:1000F00083B390E0809590958770907082309105E1
:10010000B1F08430910529F10197A9F5332399F5D0
:10011000283011F481E30895203111F484E3089527
:10012000203211F487E30895203439F530C03323A9
:1001300011F5283011F482E30895203111F485E39C
:100140000895203211F488E308952034B1F480E357
:100150000895332381F4283011F483E30895203186
:1001600011F486E30895203211F489E308952034D0
:1001700021F483E2089530E001C031E0220F4F5FA7
:100180005F4F4430510509F0ADCF80E008958AE219
:1001900008951092900087E689B988E18AB98EE0C7
:1001A0008093950080EF81BB81B387BB8FEF8ABBC3
:1001B00088EF84BB80EE809364000E946B008823EC
:1001C00019F05D9BFECF8CB95F9BFECF8CB182BBDB
:1001D0008295807F88BBF1CF82BB8295807F88BB70
:1001E00008959093900089B988E18AB98EE0809350
:1001F00095000895882319F05D9BFECF8CB9089572
:0C0200005F9BFECF8CB10895F894FFCFF7
:00000001FF
