:100000000C9446000C945D000C945D000C945D0013
:100010000C945D000C945D000C945D000C945D00EC
:100020000C945D000C945D000C945D000C945D00DC
:100030000C945D000C945D000C945D000C945D00CC
:100040000C945D000C945D000C945D000C945D00BC
:100050000C945D000C945D000C945D000C945D00AC
:100060000C945D000C945D000C945D000C945D009C
:100070000C945D000C945D000C945D000C945D008C
:100080000C945D000C945D000C945D0011241FBE67
:10009000CFEFD0E1DEBFCDBF11E0A0E0B1E0E8EEF0
:1000A000F1E000E00BBF02C007900D92A030B10755
:1000B000D9F70E94D6000C94F2000C94000080EF57
:1000C00081BB81B387BB8FEF8ABB88EF84BB80EE97
:1000D00080936400089582BB8295807F88BB0895D9
:1000E0009BB39068962B8295807F982B9BBB08953D
:1000F00028E030E040E050E060E47CE94FC0822F2F
:10010000887785BBCB010197F1F783B390E08095A9
:1001100090958770907082309105B1F08430910590
:1001200029F10197A9F5332399F5283011F481E0DD
:100130000895203111F484E00895203211F487E00D
:100140000895203439F530C0332311F5283011F4E7
:1001500082E00895203111F485E00895203211F4F1
:1001600088E008952034B1F48FEF0895332381F4AB
:10017000283011F483E00895203111F486E00895C9
:10018000203211F489E00895203421F48BE00895A1
:1001900030E001C031E0220F4F5F5F4F4430510526
:1001A00009F0ADCF80E008958AE008951F9380EFB5
:1001B00081BB81B387BB8FEF8ABB88EF84BB80EEA6
:1001C00080936400109163000E9478009BB3982B89
:1001D00090681295107F192B1BBBF4CF80916300A0
:0801E0008F710895F894FFCF20
:00000001FF
